S31508000000B8820020A102000815780008556E00087D
S31508000010117800089108000855CB00080000000078
S315080000200000000000000000000000008D800008AD
S31508000030F90B0008000000001D7C00081D8100085F
S31508000040BB020008BB020008BB020008BB0200088E
S31508000050BB020008BB020008FD0B0008BB02000833
S31508000060BB020008090C0008150C0008BB020008B2
S31508000070D1090008E1090008BB020008F1090008D7
S31508000080BB020008BB020008BB020008BB0200084E
S3150800009095080008A5080008BB020008210C0008FE
S315080000A0BB020008BB020008BB020008BB0200082E
S315080000B0BB020008BB020008F5810008BB02000865
S315080000C0BB020008BB020008BB020008BB0200080E
S315080000D0BB02000879920008BB0200088992000852
S315080000E0BB020008BB020008BB020008BB020008EE
S315080000F0BB020008BB020008BB020008BB020008DE
S31508000100BB020008BB02000805820008BB02000803
S31508000110BB020008BB020008BB020008BB020008BD
S31508000120BB020008010A0008110A0008210A000893
S31508000130BB020008BB020008BB020008BB0200089D
S31508000140B5080008C5080008BB020008857800083D
S31508000150310A0008410A0008510A00089992000865
S31508000160BB020008BB020008BB020008BB0200086D
S31508000170BB020008BB020008BB0200080000000022
S31508000180BB020008BB02000800F002F800F078F88D
S3150800019014A696E8000CB244B344DA4501D100F03F
S315080001A06FF8BAE80F000FA696E83000A5EB04052D
S315080001B004EB0607AAEB0704A7F101074FEA151592
S315080001C04FEA3414A4F10104AC4201D300F058F804
S315080001D013F0010F18BFFB1A43F0010300F001F8F2
S315080001E0DBE71847649B0100849B01000A444FF033
S315080001F0000C10F8013B13F0070408BF10F8014B78
S315080002001D1108BF10F8015B641E05D010F8016BBC
S31508000210641E01F8016BF9D113F0080F1EBF10F820
S31508000220014BAD1C0C1B09D16D1E58BF01F801CB43
S31508000230FAD505E014F8016B01F8016B6D1EF9D5C6
S315080002409142D6D37047000070470000002300246F
S3150800025000250026103A28BF78C1FBD8520728BFC8
S3150800026030C148BF0B6070471FB519F01CFB9DE8ED
S31508000270030000F0D1F900F09DF91FBD10B510BDBF
S3150800028000F073FA1146FFF7EFFF18F023FA00F0B3
S3150800029091FA03B4FFF7F2FF03BC00F02FFA00004F
S315080002A00948804709480047FEE7FEE7FEE7FEE7FC
S315080002B0FEE7FEE7FEE7FEE7FEE7FEE70448054938
S315080002C0054A064B70470000E181000889010008CD
S315080002D0B8640020B8820020B8730020B8730020E4
S315080002E070B5064600F07CF9056806F10B0020F0AB
S315080002F00704B4429CBF002070BD2B466A68BAB199
S315080003001068A04210D304F1080188423CBF506827
S31508000310586007D35168101941601168091B0160BC
S3150800032058601460101D70BD13465268002AE7D144
S315080003302146284600F05CF90028DED170BD53EA54
S31508000340020C00F069802DE9F04B4FF00006002BF7
S315080003501FBFB3FA83F503FA05F424FA05F65E40DF
S3150800036012BF1643B2FA82F502FA05F4C5F1200562
S315080003701EBF22FA05FC44EA0C04203556EA044C52
S315080003804FEA144418BF641C4FF000084FF00009E8
S31508000390904271EB030C39D3002919BFB1FA81F7E2
S315080003A001FA07F6B0FA80F700FA07F6C7F1200750
S315080003B01EBF20FA07FC46EA0C062037B6FBF4FCFB
S315080003C0A7EB0507103F07F01F0BCBF120062CFA09
S315080003D006F60CFA0BFB44BFB3460026202FA4BF33
S315080003E05E464FF0000B5BEA060C08BF4FF0010BA8
S315080003F019EB0B0948EB0608ABFB027C06FB02CCA3
S315080004000BFB03CCC01B71EB0C01C1E70B46024684
S3150800041041464846BDE8F08B13B5084318BF4FF070
S31508000420FF300146AFF30080BDE81C407047032A41
S3150800043040F2308010F0030C00F0158011F8013BF3
S31508000440BCF1020F624498BF11F801CB00F8013BDA
S3150800045038BF11F8013BA2F1040298BF00F801CB9E
S3150800046038BF00F8013B11F0030300F02580083A75
S31508000470C0F0088051F8043B083A51F804CBA0E8CC
S315080004800810F5E7121D5CBF51F8043B40F8043B21
S31508000490AFF30080D20724BF11F8013B11F801CB56
S315080004A048BF11F8012B24BF00F8013B00F801CB27
S315080004B048BF00F8012B704710B5203AC0F00B80F2
S315080004C0B1E81850A0E81850B1E81850A0E818503C
S315080004D0203ABFF4F5AF5FEA027C24BFB1E81850B2
S315080004E0A0E8185044BF18C918C0BDE810405FEA14
S315080004F0827C24BF51F8043B40F8043B08BF704790
S31508000500D20728BF31F8023B48BF11F8012B28BF94
S3150800051020F8023B48BF00F8012B70474FF0000255
S315080005200429C0F0128010F0030C00F01B80CCF1F7
S31508000530040CBCF1020F18BF00F8012BA8BF20F865
S31508000540022BA1EB0C0100F00DB85FEAC17C24BFB9
S3150800055000F8012B00F8012B48BF00F8012B704763
S315080005604FF0000200B5134694469646203922BF3E
S31508000570A0E80C50A0E80C50B1F12001BFF4F7AF89
S31508000580090728BFA0E80C5048BF0CC05DF804EB6B
S31508000590890028BF40F8042B08BF704748BF20F8D9
S315080005A0022B11F0804F18BF00F8012B70477047D7
S315080005B07047704708487CB57844009007487844E7
S315080005C0009C0546019004E02046016808448047DF
S315080005D0241DAC42F8D17CBDAC970100B69701004A
S315080005E000487047E0010020704770477047704721
S315080005F038B504460A4600206946AFF3008000284D
S3150800060008BF38BD02460099204600F085F801204B
S3150800061038BD012000F0A1B8F8B5AFF30080054653
S3150800062000200C460C2000BF0646A819A0420DD98A
S31508000630324669460020AFF30080070008BF00F085
S315080006408CF80098A04218BF0546C419FFF7C8FFE2
S3150800065005600746F01D20F007004619284600F0F9
S315080006600AF8B44208BFF8BDA21B31463868BDE88F
S31508000670F84000F051B800210160416070470C2035
S31508000680704770B50446051FFFF7AAFF0068002CDF
S3150800069014BF446870BD002C18BFAC423CBF20464E
S315080006A06468F8D301680A18AA4218BF456003D1DE
S315080006B02A6805461144016028684119A1421CBFF1
S315080006C06C6070BD6168696021680844286070BD07
S315080006D010B500F01DF8006810BD10B5044600F00E
S315080006E017F8046010BD10B5002000F02FF8FFF7CA
S315080006F0C5FDBDE810400120AFF300800149182070
S31508000700ABBEFEE72600020000487047D80100206D
S3150800071000487047D8010020034640688C460028E8
S3150800072018BF88423CBF03464068F8D31868184487
S31508000730884207D00CF1030020F00700001D411A7B
S31508000740521A0146081D0A60FFF79BBF10B500F054
S315080007503FF8BDE8104000F036B810B500F050F884
S31508000760BDE8104000F02FB870477546FFF7CCFF7C
S31508000770AE4605006946534620F00700854618B080
S3150800078020B5FFF79BFDBDE820404FF000064FF06F
S3150800079000074FF000084FF0000BAC46ACE8C00964
S315080007A0ACE8C009ACE8C009ACE8C00921F007010B
S315080007B08D46704710B50446AFF300802046BDE865
S315080007C01040FFF766BD002801D0FFF797BF7047B6
S315080007D010B5002102A000F03BF8012010BD000072
S315080007E0534947414252543A2041626E6F726D61D5
S315080007F06C207465726D696E6174696F6E000000B5
S3150800080010B5012805D0002103A000F021F8012029
S3150800081010BD09A1F8E7000053494752544D454D0C
S315080008203A204F7574206F662068656170206D6583
S315080008306D6F7279000000003A2048656170206D7E
S31508000840656D6F727920636F727275707465640076
S3150800085070B505460C460A2000E06D1C00F011F83C
S3150800086035B128780028F8D102E0641C00F009F8B0
S3150800087014B120780028F8D1BDE870400A20AFF3FB
S31508000880008008B569468DF800000320ABBE08BD98
S31508000890FFE7FEE780B545F6D000C2F2000000F09B
S315080008A0ADFC80BD80B545F6D000C2F2000000F070
S315080008B0A5FC80BD80B545F6F800C2F2000000F040
S315080008C09DFC80BD80B545F6F800C2F2000000F038
S315080008D095FC80BD84B08DF80F000291ADF8062016
S315080008E09DF80F000146009123281DD80099DFE8DE
S315080008F001F012131415161B1B1B1B1B1B1B1B1BA2
S315080009001B1B1B1B1B1B1B1B1B1B1B1B1B1B1B1B29
S315080009101B1B1718191A08E007E006E005E004E0B3
S3150800092003E002E001E000E0FFE7002004B07047C2
S315080009300020704780B582B045F2F450C2F200003C
S31508000940009042F67C61C2F200010022019209F091
S3150800095045F8009842F27C61C2F2000109F020F8DD
S31508000960019802B080BD000080B584B00390029162
S31508000970039945F2F450C2F20000009009F010F80D
S31508000980009808F0B3FF03990298026840F2D03045
S31508000990C2F2000001903030FFF749FD0198029934
S315080009A00968A0F86010426E039802990968904792
S315080009B0002004B080BD000083B0029001918DF83C
S315080009C0032000208DF802009DF9020003B070474D
S315080009D080B545F66030C2F2000001F04BF980BDE3
S315080009E080B545F62010C2F2000001F043F980BD3B
S315080009F080B545F68010C2F2000001F03BF980BDD3
S31508000A0080B545F6C030C2F2000001F033F980BD6A
S31508000A1080B545F6E010C2F2000001F02BF980BD62
S31508000A2080B545F64020C2F2000001F023F980BDEA
S31508000A3080B545F6A020C2F2000001F01BF980BD82
S31508000A4080B545F62040C2F2000001F013F980BDDA
S31508000A5080B545F60030C2F2000001F00BF980BD02
S31508000A6082B001900198007810384AF6AB21CAF690
S31508000A70AA21A0FB011000090090009949F65C2004
S31508000A80C0F60100405C0199C8650098042807D3A0
S31508000A90FFE701990868042262F30900886506E001
S31508000AA00199086840F2FF3290438865FFE701988C
S31508000AB0806D02B07047000086B0059000208DF862
S31508000AC013000598806A03900598806910BBFFE7B4
S31508000AD00398029003281BD80299DFE801F0020D5B
S31508000AE00218059890F82F00C00720B1FFE70120EB
S31508000AF08DF81300FFE70CE00598C06AB0F1C07FD7
S31508000B0004D1FFE701208DF81300FFE701E000E0BC
S31508000B10FFE745E005988069B0F5005F25D1FFE756
S31508000B200398019003281ED80199DFE801F0020610
S31508000B30021101208DF8130016E0059890F82F0091
S31508000B40C00720B1FFE701208DF81300FFE70BE08F
S31508000B500598C06AB0F1C07F04D1FFE701208DF87F
S31508000B601300FFE700E0FFE719E003980090032869
S31508000B7004D3FFE70098032804D00EE001208DF87F
S31508000B8013000BE0059890F82F00C00720B1FFE787
S31508000B9001208DF81300FFE700E0FFE7FFE7FFE716
S31508000BA09DF8130006B0704784B003900291019235
S31508000BB0009303980168086820F48020086000986C
S31508000BC003990968486003988068402809D1FFE7B7
S31508000BD00198039909688860029803990968C860AA
S31508000BE008E00298039909688860019803990968DA
S31508000BF0C860FFE704B070477047000080B5012061
S31508000C0001F00AFB80BD000080B5082001F004FB56
S31508000C1080BD000080B5102001F0FEFA80BD0000FE
S31508000C2080B5202001F0F8FA80BD000072B6FFE713
S31508000C30FEE7000080B584B047F61020C1F6FF70C5
S31508000C400068039047F61420C1F6FF70006802900A
S31508000C5047F61820C1F6FF700068019001990398BD
S31508000C6008440390039888B1FFE7039840F2781187
S31508000C70C2F2000100910231082206F0EDF800994F
S31508000C8002981231042206F0E7F8FFE704B080BDA7
S31508000C9084B002900191029890F820008DF8030024
S31508000CA09DF80300012805D0FFE79DF803000228F8
S31508000CB00AD1FFE7019A029801684869104348611A
S31508000CC000208DF80F0008E00299486A40F4802059
S31508000CD0486201208DF80F00FFE79DF80F0004B069
S31508000CE07047000088B00690059104920393069811
S31508000CF090F820008DF80700069800688068009034
S31508000D000598806808B9FFE700E0FFE79DF8070047
S31508000D10012806D0FFE79DF80700022840F08080EA
S31508000D20FFE79DF80300400700280CD4FFE79DF86D
S31508000D3003000007002806D4FFE79DF80300C00655
S31508000D40002864D5FFE70098C0F301600290029975
S31508000D5001208840039908600598806868B9FFE70C
S31508000D6005980168C06840EA415006990968029AE0
S31508000D7001EB0211C1F880010EE005994A688868FE
S31508000D80C96840EAC200084306990968029A01EB55
S31508000D900211C1F88001FFE70598006906990968FC
S31508000DA0029A01EB0211C1F884010598007D012819
S31508000DB00CD1FFE706980068029900EB0111D1F8FB
S31508000DC0840140F48070C1F88401FFE70498406804
S31508000DD006990968029A01EB0211C1F88C01049878
S31508000DE0006806990968029A01EB0211C1F88801A0
S31508000DF006980068029900EB0111D1F8800140F0CD
S31508000E000100C1F8800100208DF81F0011E0069945
S31508000E10486A40F40010486201208DF81F0008E077
S31508000E200699486A40F48020486201208DF81F0020
S31508000E30FFE79DF81F0008B07047000086B00490D1
S31508000E400391049800680190049890F820008DF8A2
S31508000E5003009DF80300012806D0FFE79DF803006C
S31508000E60022840F0B080FFE746F20040C4F20000D6
S31508000E7001900199D1F8000240F00100C1F8000282
S31508000E800199D1F8000220F47C50C1F800020398B9
S31508000E90426A0199D1F8000240EA0220C1F800022C
S31508000EA00398406900F01F01012088400290029AC9
S31508000EB00199D1F81C029043C1F81C020398C06935
S31508000EC0F0B9FFE7029A0199D1F80C029043C1F8EC
S31508000ED00C02039A9088D168526940EA0140019948
S31508000EE001EBC201C1F84002039A10889168526961
S31508000EF040EA0140019901EBC201C1F84402FFE74B
S31508000F000398C06901281ED1FFE7029A0199D1F812
S31508000F100C021043C1F80C02039A908811685269B2
S31508000F2040EA0140019901EBC201C1F84002039A67
S31508000F3090899168526940EA0140019901EBC20122
S31508000F40C1F84402FFE70398806940B9FFE7029AAF
S31508000F500199D1F804029043C1F8040207E0029A05
S31508000F600199D1F804021043C1F80402FFE7039877
S31508000F70006940B9FFE7029A0199D1F81402904333
S31508000F80C1F8140207E0029A0199D1F81402104335
S31508000F90C1F81402FFE70398006A012808D1FFE7A1
S31508000FA0029A0199D1F81C021043C1F81C02FFE706
S31508000FB00199D1F8000220F00100C1F800020020D2
S31508000FC08DF8170008E00499486A40F480204862C2
S31508000FD001208DF81700FFE79DF8170006B0704747
S31508000FE081B0009001B0704786B0049003910292D8
S31508000FF00193049890F820008DF803009DF80300EB
S31508001000012806D0FFE79DF80300022840F0E88093
S31508001010FFE7039880B9FFE704980068C06880076F
S3150800102048B9FFE70499486A40F40010486201206D
S315080010308DF81700DDE00FE0049800680069800766
S3150800104048B9FFE70499486A40F40010486201204D
S315080010508DF81700CDE0FFE704980068039900EBC8
S315080010600110D0F8B00100F00400029988600298D7
S31508001070806858B9FFE704980068039900EB0110E7
S31508001080D0F8B001400D029908600AE0049800689B
S31508001090039900EB0110D0F8B001C0080299486026
S315080010A0FFE704980068039900EB0110D0F8B00137
S315080010B000F002000299C86004980068039900EBE2
S315080010C00110D0F8B40100F00F00082804D3FFE798
S315080010D00299082008610BE004980068039900EB60
S315080010E00110D0F8B40100F00F0002990861FFE77B
S315080010F004980068039900EB0110D0F8B40180B297
S31508001100000A0299886104980068039900EB0110A7
S31508001110D0F8B401000C0299486104980068039954
S3150800112000EB0110D0F8B80101990870049800681E
S31508001130039900EB0110D0F8B801000A019948702C
S3150800114004980068039900EB0110D0F8B801000C68
S315080011500199887004980068039900EB0110D0F88B
S31508001160B801000E0199C87004980068039900EB4D
S315080011700110D0F8BC010199087104980068039918
S3150800118000EB0110D0F8BC01000A019948710498D7
S315080011900068039900EB0110D0F8BC01000C019916
S315080011A0887104980068039900EB0110D0F8BC0117
S315080011B0000E0199C871039838B9FFE704980168C9
S315080011C0C86840F02000C86006E00498016808690D
S315080011D040F020000861FFE700208DF8170008E0BE
S315080011E00499486A40F48020486201208DF8170067
S315080011F0FFE79DF8170006B07047000080B58AB073
S315080012000990002008900998006840690790099895
S3150800121000684068069009980068806805900998F3
S315080012200068C068049009980068006903900998E6
S315080012300068806902909DF81C00C007002800F02D
S315080012409480FFE79DF81400C00758B3FFE7099894
S315080012500168012088609DF814008007002804D5DD
S31508001260FFE7099800F056FC1BE09DF814004007BC
S31508001270002805D5FFE7089840F4006008900FE0BD
S315080012809DF814000007002805D5FFE7089840F4E4
S315080012908050089003E0099800F038FCFFE7FFE764
S315080012A0FFE7FFE79DF81500C00760B3FFE7099859
S315080012B001684FF4807088609DF815008007002843
S315080012C004D5FFE7099800F02DFC1BE09DF81500F2
S315080012D04007002805D5FFE7089840F40050089015
S315080012E00FE09DF815000007002805D5FFE70898C8
S315080012F040F48040089003E0099800F00FFCFFE7EF
S31508001300FFE7FFE7FFE79DF81600C00760B3FFE7B2
S31508001310099801684FF4803088609DF816008007A8
S31508001320002804D5FFE7099800F004FC1BE09DF8A7
S3150800133016004007002805D5FFE7089840F4004046
S3150800134008900FE09DF816000007002805D5FFE76E
S31508001350089840F48030089003E0099800F0E6FB0E
S31508001360FFE7FFE7FFE7FFE7FFE79DF81C00000739
S31508001370002810D5FFE79DF81000C006002809D5FB
S31508001380FFE7089840F40070089009980168102053
S31508001390C860FFE7FFE79DF81C00400700280FD547
S315080013A0FFE79DF810000007002808D5FFE7099811
S315080013B001680820C860099800F0DEFAFFE7FFE731
S315080013C09DF81C00800700280BD5FFE709980068E0
S315080013D0C068800720B1FFE7099800F0D1FAFFE757
S315080013E0FFE79DF81C004006002810D5FFE79DF88A
S315080013F00C00C006002809D5FFE7089840F480606D
S3150800140008900998016810200861FFE7FFE79DF832
S315080014101C00800600280FD5FFE79DF80C00000782
S31508001420002808D5FFE70998016808200861099887
S3150800143000F0E2FAFFE7FFE79DF81C00C006002867
S315080014400BD5FFE7099800680069800720B1FFE718
S31508001450099800F0D5FAFFE7FFE79DF81E00800718
S3150800146000280FD5FFE79DF81800C006002808D504
S31508001470FFE70998016810204860099800F0FCFA0F
S31508001480FFE7FFE79DF81E00C00778B1FFE79DF864
S3150800149018000007002808D5FFE709980168082002
S315080014A04860099800F04AFBFFE7FFE79DF81D0032
S315080014B00006002840F18D80FFE79DF818004007D8
S315080014C0002840F18180FFE79DF81D00C00750B154
S315080014D0FFE79DF80800C00728B1FFE7089840F025
S315080014E001000890FFE79DF81D00800700280BD52E
S315080014F0FFE79DF808008007002805D5FFE708984C
S3150800150040F002000890FFE79DF81D0040070028FC
S315080015100BD5FFE79DF808004007002805D5FFE72B
S31508001520089840F004000890FFE79DF81D000007A2
S31508001530002848D5FFE79DF8080010F0700F42D044
S31508001540FFE7029800F0700001460191102814D0B8
S31508001550FFE70198202815D0FFE70198302816D014
S31508001560FFE70198402817D0FFE70198502818D0C0
S31508001570FFE70198602819D01DE0089840F0080098
S31508001580089019E0089840F01000089014E00898B0
S3150800159040F0200008900FE0089840F040000890BE
S315080015A00AE0089840F08000089005E0089840F4A2
S315080015B08070089000E0FFE709980168886920F0C4
S315080015C070008861FFE7FFE7099801680420486012
S315080015D0FFE7089848B1FFE7089A0999486A10434F
S315080015E048620998FFF7FCFCFFE70AB080BD0000D7
S315080015F080B584B00290029820B9FFE701208DF8E3
S315080016000F00E0E0029890F8200020B9FFE7029862
S3150800161000F0DEF8FFE702980168086840F001006C
S31508001620086001F01DF80190FFE70298006840681D
S31508001630C007A8B9FFE701F013F80199401A0B286B
S315080016400DD3FFE70299486A40F4003048620299D0
S31508001650052081F8200001208DF80F00B3E0E4E7AB
S3150800166002980168086820F00200086000F0F8FF98
S315080016700190FFE70298006840688007002815D5A2
S31508001680FFE700F0EDFF0199401A0B280DD3FFE79D
S315080016900299486A40F4003048620299052081F8A8
S315080016A0200001208DF80F008DE0E3E70298007E08
S315080016B0012807D1FFE702980168086840F0800012
S315080016C0086006E002980168086820F08000086053
S315080016D0FFE70298407E012807D1FFE702980168D4
S315080016E0086840F04000086006E00298016808684B
S315080016F020F040000860FFE70298807E012807D1A5
S31508001700FFE702980168086840F02000086006E0D4
S3150800171002980168086820F020000860FFE7029830
S31508001720C07E012807D1FFE702980168086820F003
S315080017301000086006E002980168086840F010008A
S315080017400860FFE70298007F012807D1FFE70298A3
S315080017500168086840F00800086006E00298016819
S31508001760086820F008000860FFE70298407F012813
S3150800177007D1FFE702980168086840F0040008608E
S3150800178006E002980168086820F004000860FFE790
S31508001790029B19685A689868D3F80CC040EA0C008E
S315080017A0D3F810C040EA0C005B691843013A1043AD
S315080017B0C861029900204862029A012182F8201025
S315080017C08DF80F00FFE79DF80F0004B080BD0000FC
S315080017D080B592B01190002010900F900E900D9049
S315080017E00C901198006846F20041C4F20001884244
S315080017F052D1FFE740F20030C2F200000168013121
S3150800180001600068012812D1FFE7FFE700200B906E
S3150800181043F64000C4F20200016841F0007101601D
S31508001820006800F000700B900B98FFE7FFE7FFE7F2
S3150800183000200A9043F63000C4F20200016841F025
S3150800184008010160006800F008000A900A98FFE79E
S3150800185003200C9002210D91002105910E910F9005
S315080018600920109040F60040C4F202000CA900F0CE
S31508001870EFFC059A14200490114601F0A3F9049888
S3150800188001F096F9059A15200690114601F09AF985
S31508001890069801F08DF96DE01198006846F600018A
S315080018A0C4F20001884264D1FFE7FFE700200990EF
S315080018B043F64000C4F20200016841F0806101600D
S315080018C0006800F0806009900998FFE740F2003050
S315080018D0C2F200000168013101600068012812D1D6
S315080018E0FFE7FFE70020089043F64000C4F2020035
S315080018F0016841F000710160006800F0007008900E
S315080019000898FFE7FFE7FFE70020079043F6300057
S31508001910C4F20200016841F002010160006800F0AB
S31508001920020007900798FFE760200C9002200D90B0
S31508001930002002900E9003200F900920109040F28C
S315080019400040C4F202000CA900F082FC029A402072
S315080019500190114601F036F9019801F029F9029A29
S3150800196041200390114601F02DF9039801F020F962
S31508001970FFE7FFE712B080BD81B0009001B0704765
S3150800198080B586B005900598006846F20041C4F215
S315080019900001884212D1FFE7059840F25821C2F2A9
S315080019A0000103910A1D049201F120030021FFF7AB
S315080019B01BFB03990498896A88471BE00598006809
S315080019C046F60001C4F20001884212D1FFE70598E5
S315080019D040F2A421C2F2000101910A1D029201F10E
S315080019E020030021FFF700FB01990298896A8847BE
S315080019F0FFE7FFE706B080BD81B0009001B07047F1
S31508001A0080B586B005900598006846F20041C4F294
S31508001A100001884212D1FFE7059840F25821C2F228
S31508001A20000103910A1D049201F120030121FFF729
S31508001A30DBFA03990498896A88471BE005980068C9
S31508001A4046F60001C4F20001884212D1FFE7059864
S31508001A5040F2A421C2F2000101910A1D029201F18D
S31508001A6020030121FFF7C0FA01990298896A88477D
S31508001A70FFE7FFE706B080BD81B0009001B0704770
S31508001A8080B584B00290029890F8200001282FD1E2
S31508001A90FFE70299022081F8200002980168086889
S31508001AA020F00100086000F0DBFD0190FFE70298D6
S31508001AB000684068C007A8B1FFE700F0D1FD0199AA
S31508001AC0401A0B280DD3FFE70299486A40F4003004
S31508001AD048620299052081F8200001208DF80F0040
S31508001AE00FE0E4E70299002048628DF80F0008E04D
S31508001AF00299486A40F40020486201208DF80F00D8
S31508001B00FFE79DF80F0004B080BD000081B000908B
S31508001B1001B0704781B0009001B0704781B0009065
S31508001B2001B0704781B0009001B0704781B0009055
S31508001B3001B0704781B0009001B0704781B0009045
S31508001B4001B0704780B584B002900298806D01900C
S31508001B5000F086FD0090029890F8350002280DD016
S31508001B60FFE7029980204865FFE70299002081F87F
S31508001B703400FFE701208DF80F0055E00298016850
S31508001B80086820F01600086002980168486920F085
S31508001B90800048610298006C20B9FFE70298806CC3
S31508001BA038B1FFE702980168086820F00800086065
S31508001BB0FFE702980168086820F001000860FFE75F
S31508001BC0029800680068C007C8B1FFE700F048FD42
S31508001BD00099401A062811D3FFE702992020486584
S31508001BE00299032081F83500FFE70299002081F861
S31508001BF03400FFE703208DF80F0015E0E0E70298B0
S31508001C00C16D3F208840019988600299012081F8BA
S31508001C103500FFE70299002081F83400FFE7FFE767
S31508001C2000208DF80F00FFE79DF80F0004B080BD77
S31508001C3082B00090009890F83500022807D0FFE798
S31508001C4000998020486501208DF807000EE000996C
S31508001C50052081F8350000980168086820F0010021
S31508001C600860FFE700208DF80700FFE79DF80700EA
S31508001C7002B0704780B586B005900020039040F208
S31508001C80C000C2F20000006848F2B511C1F64E3134
S31508001C90A0FB0110800A02900598806D01900198BA
S31508001CA00068049004980599C96DC8400007002883
S31508001CB01AD5FFE70598006800684007002812D57E
S31508001CC0FFE705980168086820F004000860059891
S31508001CD0C16D08208840019988600599486D40F0D3
S31508001CE001004865FFE7FFE704980599C96DC840F4
S31508001CF0C007A0B1FFE705980068406900060028FC
S31508001D000CD5FFE70598C16D0120884001998860C8
S31508001D100599486D40F002004865FFE7FFE704981B
S31508001D200599C96DC8404007002814D5FFE70598EE
S31508001D3000680068800700280CD5FFE70598C16D84
S31508001D4004208840019988600599486D40F0040090
S31508001D504865FFE7FFE704980599C96DC840C006BE
S31508001D60002847D5FFE7059800680068000700289F
S31508001D703FD5FFE70598C16D102088400199886016
S31508001D80059800680068400300281AD5FFE70598FB
S31508001D90006800680003002809D4FFE70598006C6E
S31508001DA020B1FFE70598016C8847FFE708E005982A
S31508001DB0806C20B1FFE70598816C8847FFE7FFE74D
S31508001DC016E0059800680068C005002807D4FFE7F4
S31508001DD005980168086820F008000860FFE705987C
S31508001DE0006C20B1FFE70598016C8847FFE7FFE71D
S31508001DF0FFE7FFE704980599C96DC84080060028E3
S31508001E0040F18D80FFE7059800680068C006002845
S31508001E1040F18480FFE70598C16D2020884001992C
S31508001E208860059890F83500052834D1FFE70598AD
S31508001E300168086820F01600086005980168486976
S31508001E4020F0800048610598006C20B9FFE70598E6
S31508001E50806C38B1FFE705980168086820F008002B
S31508001E600860FFE70598C16D3F20884001998860A2
S31508001E700599012081F83500FFE70599002081F8CA
S31508001E803400FFE70598006D20B1FFE70598016D5E
S31508001E908847FFE77BE0059800680068400300284C
S31508001EA01AD5FFE70598006800680003002809D4DA
S31508001EB0FFE70598406C20B1FFE70598416C884715
S31508001EC0FFE708E00598C06B20B1FFE70598C16BEE
S31508001ED08847FFE7FFE720E0059800680068C00527
S31508001EE0002811D4FFE705980168086820F010005B
S31508001EF008600599012081F83500FFE7059900205B
S31508001F0081F83400FFE7FFE70598C06B20B1FFE7CB
S31508001F100598C16B8847FFE7FFE7FFE7FFE70598E6
S31508001F20406DA0B3FFE70598406DC00730B3FFE7E3
S31508001F300599052081F8350005980168086820F09C
S31508001F4001000860FFE70398013003900299884270
S31508001F5001D9FFE707E0FFE7059800680068C007B2
S31508001F600028F0D1FFE70599012081F83500FFE741
S31508001F700599002081F83400FFE7FFE70598C06C53
S31508001F8020B1FFE70598C16C8847FFE7FFE706B071
S31508001F9080BD000080B586B004900020039000F054
S31508001FA05FFB0290049820B9FFE701208DF817001F
S31508001FB0A3E00498406A08B1FFE7FFE70499022006
S31508001FC081F83500FFE70499002081F83400FFE71F
S31508001FD004980168086820F001000860FFE7049883
S31508001FE000680068C00790B1FFE700F039FB029966
S31508001FF0401A06280AD3FFE7049920204865049961
S31508002000032081F835008DF8170076E0E7E7049895
S31508002010006800680390039848F23F01CFF2100168
S3150800202008400390049900914868D1F808C0CB6825
S315080020300A6940EA0C00184310434A6910438A6942
S315080020401043CA691043096A014303980843039079
S315080020500498406A042808D1FFE70499C86A096BFE
S315080020600143039808430390FFE703980499096816
S3150800207008600498006840690390039820F00700F8
S3150800208003900498416A0398084303900498406AA9
S3150800209004281AD1FFE70498816A03980843039035
S315080020A00498C06A80B1FFE70498FEF705FD50B1B1
S315080020B0FFE70499402048650499012081F8350016
S315080020C08DF8170019E0FFE7FFE7039804990968F8
S315080020D048610498FEF7C4FC01900498C16D3F203E
S315080020E0884001998860049900204865049A01216E
S315080020F082F835108DF81700FFE79DF8170006B02F
S3150800210080BD000080B588B00690059104920393BF
S3150800211000208DF80B000698806D0190FFE7069861
S3150800212090F83400012804D1FFE702208DF81F003B
S3150800213045E00699012081F83400FFE7FFE7069895
S3150800214090F8350001282BD1FFE70699022081F87F
S31508002150350006990020486506980599049A039B58
S31508002160FEF722FD0698C16D3F20884001998860D8
S3150800217006980168086840F0160008600698006C22
S3150800218038B1FFE706980168086840F0080008605B
S31508002190FFE706980168086840F00100086009E052
S315080021A0FFE70699002081F83400FFE702208DF842
S315080021B00B00FFE79DF80B008DF81F00FFE79DF861
S315080021C01F0008B080BD000080B584B0039000F001
S315080021D047FA0290039801900198013048B1FFE749
S315080021E040F2C910C2F20000017801980844019033
S315080021F0FFE7FFE700F034FA0299401A019988428E
S3150800220001D2FFE7F6E704B080BD000081B0ADF863
S31508002210020001B07047000080B582B0ADF8060034
S3150800222043F61440C4F201000068BDF806100842DF
S315080022300CD0FFE7BDF8060043F61441C4F20101CD
S315080022400860BDF80600FFF7E1FFFFE702B080BDB2
S315080022508EB00D900C9100200A90099008900B9072
S31508002260FFE70B980F2800F2CC81FFE70B990120B6
S3150800227088400A900C9800680A99084009900998BD
S315080022800A99884240F0B881FFE70C98406800F048
S315080022900300012807D0FFE70C98406800F0030008
S315080022A002282FD1FFE70D98806808900B98410007
S315080022B0032000FA01F10898884308900C98C06832
S315080022C00B99490000FA01F1089808430890089804
S315080022D00D9988600D98406808900B99012000FABE
S315080022E001F10898884308900C984068C0F30010DC
S315080022F00B9900FA01F108980843089008980D9977
S315080023004860FFE70C98406800F00300032818D0DF
S31508002310FFE70D98C06808900B984100032000FA63
S3150800232001F10898884308900C9880680B99490031
S3150800233000FA01F108980843089008980D99C860B2
S31508002340FFE70C98406800F00300022826D1FFE753
S315080023500D980B996FF0030202EA51010844006ACE
S3150800236008900B9800F0070081000F2000FA01F191
S315080023700898884308900C9800690B9901F00701A2
S31508002380890000FA01F108980843089008980D9901
S315080023900B9B02EA530211440862FFE70D98006896
S315080023A008900B984100032000FA01F10898884329
S315080023B008900C98406800F003000B99490000FA51
S315080023C001F108980843089008980D9908600C9838
S315080023D080798007002800F00E81FFE7FFE70020DC
S315080023E0079043F64400C4F20200016841F48041B4
S315080023F00160006800F4804007900798FFE70B9893
S3150800240020F0030043F60801C4F201014058089081
S315080024100B9800F0030081000F2000FA01F10898DC
S31508002420884308900D980021C4F20201884203D11E
S31508002430FFE7002006905EE00D9840F20041C4F2E6
S315080024400201884203D1FFE70120059050E00D986C
S3150800245040F60001C4F20201884203D1FFE70220D8
S31508002460049042E00D9840F60041C4F20201884209
S3150800247003D1FFE70320039034E00D9841F20001F1
S31508002480C4F20201884203D1FFE70420029026E045
S315080024900D9841F20041C4F20201884203D1FFE7D8
S315080024A00520019018E00D9841F60001C4F20201DA
S315080024B0884203D1FFE7062000900AE00D9941F60D
S315080024C00042C4F202020820914208BF0720009089
S315080024D0FFE700980190FFE701980290FFE702984E
S315080024E00390FFE703980490FFE704980590FFE739
S315080024F005980690FFE70698C0B20B9901F003010C
S31508002500890000FA01F108980843089008980B9981
S3150800251021F0030143F60802C4F20102885043F68B
S315080025200840C4F201000068089009990898884391
S3150800253008900C988079C006002805D5FFE7099908
S31508002540089808430890FFE7089843F60841C4F23C
S315080025500101086043F60C40C4F2010000680890C7
S3150800256009990898884308900C988079800600286D
S3150800257005D5FFE70999089808430890FFE70898E2
S3150800258043F60C41C4F20101086043F60440C4F264
S3150800259001000068089009990898884308900C98E3
S315080025A080798007002805D5FFE709990898084328
S315080025B00890FFE7089843F60441C4F20101086051
S315080025C043F60040C4F2010000680890099908988B
S315080025D0884308900C988079C00728B1FFE70999C5
S315080025E0089808430890FFE7089843F60041C4F2A4
S315080025F001010860FFE7FFE7FFE70B9801300B9042
S315080026002FE60EB07047000083B00290ADF80610B2
S31508002610029840690090009ABDF8060002EA000197
S31508002620904340EA01400299886103B07047000070
S3150800263082B00190ADF802108DF801209DF80100D6
S3150800264028B1FFE7BDF802000199886105E0BDF8E9
S315080026500200000401998861FFE702B07047000094
S3150800266046F2B040C2F200000068704780B58EB0EE
S315080026700C900C9820B9FFE701208DF8370043E14C
S315080026800C9890F83D0040B9FFE70C99002081F8B6
S315080026903C000C9800F03CF9FFE70C99242081F8DF
S315080026A03D000C980168086820F0010008600C9845
S315080026B00168086840F4004008600C9801680868DA
S315080026C020F40040086001F049FD0A900C98406823
S315080026D048F2A061C0F2010188420BD8FFE70A99C7
S315080026E048F28042C0F21E020020914238BF012003
S315080026F009900AE00A9940F60012C0F23D0200204D
S31508002700914238BF01200990FFE70998012804D1B2
S31508002710FFE701208DF83700F6E00A984DF6836149
S31508002720C4F21B31A0FB0110800C0B900C980068BA
S31508002730406820F03F000B9908430C9909684860E7
S315080027400C980068006A20F03F0008900C984068D2
S3150800275048F2A061C0F20101884204D8FFE70B984D
S31508002760013007900EE00B984FF49671484344F6F3
S31508002770D351C1F26201A0FB0101012000EB9110C7
S315080027800790FFE70898079908430C9909680862B3
S315080027900C980068C0694CF6FF71884306900C983F
S315080027A0406848F2A061C0F2010188421FD8FFE7DD
S315080027B00A9801380C9949684900B0FBF1F00130D4
S315080027C06FF31F30032803D8FFE7042005900BE0BA
S315080027D00A9801380C9949684900B0FBF1F00130B4
S315080027E06FF31F300590FFE7059804904CE00C98AE
S315080027F0806868B9FFE70A9801380C99496801EBBF
S315080028004101B0FBF1F001306FF31F3003900DE08A
S315080028100A9801380C99496819225143B0FBF1F01E
S315080028200130042161F31F300390FFE70398000588
S3150800283018B9FFE70120029023E00C98806868B970
S31508002840FFE70A9801380C99496801EB4101B0FB8A
S31508002850F1F001306FF31F3001900DE00A9801384E
S315080028600C99496819225143B0FBF1F00130042153
S3150800287061F31F300190FFE7019840F40040029091
S31508002880FFE702980490FFE70698049908430C9915
S315080028900968C8610C980068006820F0C0000C9BA5
S315080028A01968DA691B6A1A43104308600C980068AD
S315080028B0806848F2FF3188430C9A1168D368126918
S315080028C01A43104388600C980068C06820F0FF001F
S315080028D00C9B19685A699B691A431043C8600C987F
S315080028E00168086840F0010008600C990020086437
S315080028F00C9A202182F83D100C9908630C9981F8EE
S315080029003E008DF83700FFE79DF837000EB080BD12
S3150800291080B590B00F9000200E900D900C900B9003
S315080029200A900F98006845F60041C4F200018842F3
S3150800293040F0B380FFE7FFE70020099043F6300038
S31508002940C4F20200016841F004010160006800F069
S31508002950040009900998FFE7FFE70020089043F66E
S315080029603000C4F20200016841F00101016000680C
S3150800297000F0010008900898FFE74FF400700A90ED
S31508002980122002900B90012003900C9003200490D3
S315080029900D90042005900E9040F60000C4F2020047
S315080029A00AA90691FFF754FCDDF808C0039B049AB0
S315080029B0059806994FF4807ECDF828E0CDF82CC00E
S315080029C00C930D920E900020C4F20200FFF740FC13
S315080029D0FFE70020079043F64000C4F202000168B2
S315080029E041F400010160006800F4000007900798B0
S315080029F0FFE745F62010C2F20000019046F24001BA
S31508002A00C4F2020101604FF0C0614160002181609B
S31508002A10C1604FF48062026141618161C1610162F6
S31508002A204162FFF7B7FA18B1FFE7FEF7FFF8FFE7CD
S31508002A30FFE70F9845F62011C2F2000181630F984F
S31508002A408863FFE745F68010C2F20000009046F260
S31508002A507001C4F2020101604FF0C061416040217B
S31508002A6081600021C1604FF4806202614161816129
S31508002A70C16101624162FFF78DFA18B1FFE7FEF7FF
S31508002A80D5F8FFE7FFE70F9845F68011C2F2000177
S31508002A9041630F988863FFE7FFE710B080BD000029
S31508002AA040F2C910C2F20000027846F2B041C2F202
S31508002AB000010868104408607047000080B543F6B6
S31508002AC00041C4F20201086840F400700860086812
S31508002AD040F480600860086840F48070086003204D
S31508002AE000F08AF80F2000F005F800F03BF8002007
S31508002AF080BD000080B582B0009040F2C000C2F2EE
S31508002B000000006840F2C911C2F200010A784FF4C9
S31508002B107A71B1FBF2F1B0FBF1F002F0B3FB20B130
S31508002B20FFE701208DF8070018E000980F280DD858
S31508002B30FFE700994FF0FF30002200F043F80098B5
S31508002B4040F2CC11C2F20001086003E001208DF8C2
S31508002B50070003E000208DF80700FFE79DF807004F
S31508002B6002B080BD82B0FFE70020019043F6440022
S31508002B70C4F20200016841F480410160006800F473
S31508002B80804001900198FFE7FFE70020009043F698
S31508002B904000C4F20200016841F0805101600068FB
S31508002BA000F0805000900098FFE702B070470000E0
S31508002BB080B582B08DF807009DF9070015F040F939
S31508002BC002B080BD80B586B08DF8170004910392D7
S31508002BD00020029015F04CF902909DF9170001901B
S31508002BE002980499039A04F017FE0146019815F015
S31508002BF047F906B080BD000080B582B00190019803
S31508002C0015F060F902B080BD82B001908DF803100E
S31508002C1002B0704782B00190ADF80210BDF802000C
S31508002C20019909684862002002B0704784B0039091
S31508002C308DF80B10ADF8082003980068406A0090DC
S31508002C409DF80B0048B9FFE7BDF80810009840EA60
S31508002C50014003990968886233E003980068816A2D
S31508002C60009800EB1140009000208DF80700FFE760
S31508002C709DF807009DF80B100139884213D2FFE72B
S31508002C80039800689DF8071000EB8100D0F804113E
S31508002C90009800EB11400090FFE79DF8070001300F
S31508002CA08DF80700E4E7BDF80810009840EA0140EF
S31508002CB0039909689DF80B2001EB8201C1F8000110
S31508002CC0FFE7002004B0704780B582B001900198F4
S31508002CD0D0F8E00407F0ECFD02B080BD80B582B004
S31508002CE001908DF80310019AD2F8E0049DF80310BC
S31508002CF001EBC10302EB8302126A07F037FC02B04C
S31508002D0080BD000080B582B001908DF80310019A4D
S31508002D10D2F8E0049DF8031001EBC10302EB83022D
S31508002D20D2F8602207F0EAFC02B080BD80B582B016
S31508002D3001900198D0F8E00407F0C0FD02B080BD0C
S31508002D4080B584B003908DF80B109DF80B00000633
S31508002D5000280CD5FFE703989DF80B1001F00F012A
S31508002D6001EBC10100EB8100143001900CE00398DF
S31508002D709DF80B1001F00F0101EBC10100EB81007A
S31508002D8000F515700190FFE703980068019909F0AE
S31508002D9011FB8DF80A009DF80A0004B080BD0000FA
S31508002DA080B584B002908DF807109DF807000006DC
S31508002DB000280FD5FFE702989DF8071001F00F01CC
S31508002DC001EBC10100EB810014300090009901204D
S31508002DD048700FE002989DF8071001F00F0101EB0B
S31508002DE0C10100EB810000F51570009000990020E4
S31508002DF04870FFE79DF8070000F00F00009908707B
S31508002E00FFE7029890F89404012804D1FFE702200E
S31508002E108DF80F0014E00299012081F89404FFE769
S31508002E20FFE702980068009908F0B4FDFFE70299E9
S31508002E30002081F89404FFE700208DF80F00FFE7D3
S31508002E409DF80F0004B080BD80B584B002908DF85F
S31508002E5007109DF8070000F00F00029909798842CB
S31508002E6004D9FFE701208DF80F004DE09DF8070013
S31508002E70000600280FD5FFE702989DF8071001F015
S31508002E800F0101EBC10100EB81001430009000999D
S31508002E90012048700FE002989DF8071001F00F0115
S31508002EA001EBC10100EB810000F515700090009957
S31508002EB000204870FFE70099002088709DF80700F9
S31508002EC000F00F0000990870FFE7029890F8940444
S31508002ED0012804D1FFE702208DF80F0014E00299BB
S31508002EE0012081F89404FFE7FFE70298006800993B
S31508002EF008F0C0FFFFE70299002081F89404FFE775
S31508002F0000208DF80F00FFE79DF80F0004B080BD84
S31508002F1082B001908DF8031001989DF8031001F016
S31508002F200F0101EBC10100EB8100D0F8680202B085
S31508002F307047000080B586B004908DF80F10ADF884
S31508002F400C208DF80B3000208DF80A009DF80F0034
S31508002F50000600280FD5FFE704989DF80F1001F02A
S31508002F600F0101EBC10100EB8100143001900199BA
S31508002F70012048700FE004989DF80F1001F00F012A
S31508002F8001EBC10100EB810000F515700190019974
S31508002F9000204870FFE79DF80F0000F00F00019928
S31508002FA00870BDF80C006FF3DF20019988609DF862
S31508002FB00B00019908710198407820B1FFE7019943
S31508002FC008784883FFE79DF80B00022804D1FFE73D
S31508002FD0019900204871FFE7FFE7049890F89404E8
S31508002FE0012804D1FFE702208DF8170015E004999F
S31508002FF0012081F89404FFE7FFE704980068019927
S3150800300008F09AFBFFE70499002081F89404FFE78B
S315080030109DF80A008DF81700FFE79DF8170006B01F
S3150800302080BD000080B586B005908DF81310039218
S31508003030029305989DF8131001F00F0101EBC101E9
S3150800304000EB810000F51570019003980199C8609E
S315080030500298019908610199002048610199487010
S315080030609DF8130000F00F00019908700598807903
S31508003070012804D1FFE703980199C861FFE7059A7B
S3150800308010680199927908F099FF002006B080BD72
S3150800309080B584B002908DF807109DF8070000F0FF
S315080030A00F0002990979884204D9FFE701208DF8B3
S315080030B00F0058E09DF80700000600280FD5FFE727
S315080030C002989DF8071001F00F0101EBC10100EB12
S315080030D08100143000900099012048700DE0029894
S315080030E09DF8071001EBC10100EB810000F5157092
S315080030F00090009900204870FFE700990120887029
S315080031009DF8070000F00F0000990870FFE7029885
S3150800311090F89404012804D1FFE702208DF80F00E7
S3150800312021E00299012081F89404FFE7FFE702985D
S315080031300068009908F0EEFE9DF80700000740B900
S31508003140FFE7029A1068917902F29C4208F042FE63
S31508003150FFE7FFE70299002081F89404FFE70020C3
S315080031608DF80F00FFE79DF80F0004B080BD000042
S3150800317080B586B005908DF81310039202930598D2
S315080031809DF8131001F00F0101EBC10100EB81005E
S315080031901430019003980199C86002980199086152
S315080031A00199002048610199012048709DF8130093
S315080031B000F00F000199087005988079012804D15C
S315080031C0FFE703980199C861FFE7059A1068019916
S315080031D0927908F0F3FE002006B080BD80B58CB069
S315080031E00B900B9800680A900A9809900B9800684B
S315080031F009F016FA002840F00B84FFE70B980068E0
S3150800320009F082FA10B9FFE700F002BC0998D0F875
S315080032100808C0F30D200B99C1F8D4040B98006870
S3150800322009F072FA8007002807D5FFE70B980168AE
S31508003230486900F002004861FFE70B98006809F04A
S3150800324063FAC006002862D5FFE70B98016888690B
S3150800325020F0100088610A98006A02900B9802997B
S3150800326001F00F0101EBC10100EB810000F51570BB
S315080032700890029800F4F0110220B0EB514F23D1C8
S31508003280FFE7BDF8080047F6F07108421BD0FFE7D4
S315080032900A980899C968029AC2F30A1209F042FA0A
S315080032A0029847F6F07100EA0103089AD06800EB25
S315080032B01310D060029800EA01020899486900EBE9
S315080032C012104861FFE71BE0029800F4F01106208F
S315080032D0B0EB514F12D1FFE70A980B9901F29C41C6
S315080032E0082209F01FFA029847F6F07100EA01026F
S315080032F00899486900EB1210486100E0FFE7FFE70C
S315080033000B980168886940F010008861FFE70B9800
S31508003310006809F0F9F90003002840F1A680FFE7E4
S31508003320002004900B98006809F09CF90690FFE7C6
S315080033300698002800F09880FFE79DF81800C00757
S31508003340002800F08A80FFE70B9800689DF81010A7
S3150800335009F0C2F905909DF81400C00760B1FFE7AF
S315080033600998049900EB41110120C1F8080B0B9844
S31508003370049904F0D5FAFFE79DF814000007002821
S315080033800CD5FFE70998049900EB41110820C1F80C
S31508003390080B0B98049904F07DFAFFE79DF81400D2
S315080033A0C006002808D5FFE70998049900EB4111E3
S315080033B01020C1F8080BFFE79DF8140080070028C5
S315080033C02DD5FFE70A9840690006002808D5FFE7CB
S315080033D00999D1F8040840F48060C1F80408FFE7A9
S315080033E00B98049901EBC10100EB810000F51570FB
S315080033F008900898C078012809D1FFE708990020A5
S31508003400C8700B989DF8101000F012FBFFE709989A
S31508003410049900EB41110220C1F8080BFFE79DF85B
S3150800342014008006002808D5FFE70998049900EBE0
S3150800343041112020C1F8080BFFE79DF8150080060A
S31508003440002809D5FFE70998049900EB41114FF4C4
S315080034500050C1F8080BFFE7FFE704980130049015
S3150800346006984008069063E7FFE70B98006809F09E
S315080034704BF94003002840F1C680FFE70B98006827
S3150800348009F0DEF8069000200490FFE70698002869
S3150800349000F0B880FFE79DF81800C007002800F084
S315080034A0AA80FFE70B9800689DF8101009F0ECF861
S315080034B005909DF81400C00700283ED0FFE7049841
S315080034C000F00F01012000FA01F10391039B099A0C
S315080034D0D2F834189943C2F834180999049A01EBBA
S315080034E04211C1F808090B98807901281FD1FFE716
S315080034F00B98049901EBC10100EB8101CA69086ABE
S3150800350010440862049888B9FFE70B98049901EB00
S31508003510C10100EB8100406A40B9FFE70B990868D2
S3150800352001F29C42012108F055FCFFE7FFE70B98E2
S315080035309DF81010FFF7D2FBFFE79DF8140000076F
S31508003540002808D5FFE70998049900EB41110820DF
S31508003550C1F80809FFE79DF81400C006002808D539
S31508003560FFE70998049900EB41111020C1F80809F2
S31508003570FFE79DF814004006002808D5FFE70998DC
S31508003580049900EB41114020C1F80809FFE79DF8AE
S3150800359014008007002822D5FFE70A98049908F046
S315080035A0DBFF0B98049901EBC10100EB8100143095
S315080035B008900898C078012809D1FFE708990020E3
S315080035C0C8700B989DF8101000F024FAFFE70998C8
S315080035D0049900EB41110220C1F80809FFE79DF89C
S315080035E014000006002805D5FFE70B98049904F097
S315080035F07BFAFFE7FFE70498013004900698400835
S31508003600069043E7FFE70B98006809F07DF8C00FBE
S3150800361000B3FFE70999D1F8040820F00100C1F8C2
S3150800362004080B9890F8CC04012808D1FFE70B98FA
S31508003630002180F8CC140B98FFF7E6FA03E00B9804
S3150800364000F0A8FBFFE70B980168486900F0004006
S315080036504861FFE70B98006809F056F8000500284E
S3150800366011D5FFE70998D0F80808C00720B1FFE789
S315080036700B9800F01BFCFFE70B980168486900F4FB
S3150800368000604861FFE70B98006809F03DF8C00440
S31508003690002840F18680FFE70999D1F8040820F050
S315080036A00100C1F804080B980068102108F054FFBF
S315080036B000200790FFE707980B990979884231D2CD
S315080036C0FFE70998079900EB41114FF67F30C1F8DB
S315080036D008090999079A01EB4212D2F8001921F450
S315080036E00011C2F800190999079A01EB4211C1F8AD
S315080036F0080B0998079900EB4111D1F8000B20F443
S315080037000010C1F8000B0998079900EB4111D1F890
S31508003710000B40F00060C1F8000BFFE70798013086
S315080037200790C8E70999D1F81C0840F00110C1F8BC
S315080037301C080B98C07B78B1FFE70999D1F8840873
S3150800374040F00B00C1F884080999D1F8440840F004
S315080037500B00C1F844080FE00999D1F8140842F2A1
S315080037602B021043C1F814080999D1F8100840F043
S315080037700B00C1F81008FFE70999D1F8000820F4F2
S31508003780FE60C1F800080B9A1068917902F29C4213
S3150800379008F020FB0B980168486900F480504861DE
S315080037A0FFE70B98006808F0AFFF800400281FD5D4
S315080037B0FFE70B98006808F02FF80B98006808F0E8
S315080037C009FF0B99C8710B980068019000F0C0FCBE
S315080037D0014601980B9AD27909F09CF80B9800F0EB
S315080037E0AFFA0B980168486900F400504861FFE792
S315080037F00B98006808F088FF000700280AD5FFE73D
S315080038000B9800F0D1FA0B980168486900F0080097
S315080038104861FFE70B98006808F076FF0006002865
S3150800382025D5FFE70A99886920F08000886101207C
S315080038300490FFE704980B990979884216D2FFE7A6
S315080038400B98049901EBC10100EB810090F857022F
S31508003850012806D1FFE70B989DF81010FFF770FABC
S31508003860FFE7FFE7049801300490E3E7FFE70B98CA
S31508003870006808F049FFC00200283CD5FFE7012090
S315080038800490FFE704980B99097988422CD2FFE740
S315080038900998049900EB4110D0F8000902900B989A
S315080038A0049901EBC10100EB8100007E012816D1C5
S315080038B0FFE79DF80B000006002810D5FFE70B98D8
S315080038C0049901EBC10100EB81010120C8750B9831
S315080038D09DF8101041F08001FFF732FAFFE7FFE785
S315080038E0049801300490CDE70B980168486900F404
S315080038F080104861FFE70B98006808F005FF800212
S31508003900002855D5FFE701200490FFE704980B9996
S315080039100979884245D2FFE70998049900EB4110D6
S31508003920D0F8000B02900B98049901EBC10100EB4B
S31508003930810090F8580201282ED1FFE79DF80B0068
S315080039400006002828D5FFE7029800F480300B9976
S31508003950D1F8D41401F0010188421DD1FFE70B9874
S31508003960049901EBC10100EB8101012081F857029E
S315080039700A99886940F0800088610A9840690006BB
S31508003980002808D4FFE70999D1F8040840F4007024
S31508003990C1F8040805E0FFE7FFE704980130049042
S315080039A0B4E70B980168486900F400104861FFE71E
S315080039B00B98006808F0A8FE400000280AD5FFE723
S315080039C00B98FFF781F90B980168486900F0804069
S315080039D04861FFE70B98006808F096FE4007002844
S315080039E015D5FFE70B980068406802909DF8080017
S315080039F04007002804D5FFE70B98FFF797F9FFE77C
S31508003A00029A0B980168486810434860FFE7FFE789
S31508003A100CB080BD80B582B001908DF80310019876
S31508003A20D0F8E0049DF8031006F0E4FF02B080BD6C
S31508003A3080B582B001908DF803100198D0F8E004A3
S31508003A409DF8031007F00EF802B080BD80B58EB061
S31508003A500C900C9820B9FFE701208DF8370012E189
S31508003A600C9800680B900C9890F8950440B9FFE7FD
S31508003A700C99002081F894040C9800F009F9FFE7E6
S31508003A800C99032081F895040B98B0F1A04F04D146
S31508003A90FFE70C9900208871FFE70C98006808F08A
S31508003AA08FF90C9B1868197C8DF8241059689A6848
S31508003AB0DB680893079206910699079A089BDDF832
S31508003AC024C0EE46CEF800C007F0BCFE40B1FFE7C2
S31508003AD00C99022081F8950401208DF83700D2E070
S31508003AE00C980068002108F077FE40B1FFE70C99B2
S31508003AF0022081F8950401208DF83700C3E00020E4
S31508003B008DF82B00FFE79DF82B000C990979884260
S31508003B1041DAFFE70C989DF82B1001EBC10100EB89
S31508003B208101012048759DF82B000C9900EBC00215
S31508003B3001EB820108759DF82B000C9900EBC00279
S31508003B4001EB8201C8850C989DF82B1001EBC10189
S31508003B5000EB8101002008760C999DF82B2002EBDA
S31508003B60C20201EB8201C8610C999DF82B2002EB79
S31508003B70C20201EB820108620C999DF82B2002EB28
S31508003B80C20201EB82014862FFE79DF82B00013073
S31508003B908DF82B00B7E700208DF82B00FFE79DF87E
S31508003BA02B000C99097988423EDAFFE70C989DF8B4
S31508003BB02B1001EBC10100EB8101002081F85502B1
S31508003BC09DF82B100C9A01EBC10302EB830282F8D5
S31508003BD054120C999DF82B2002EBC20201EB8201CC
S31508003BE081F858020C999DF82B2002EBC20201EBD2
S31508003BF08201C1F85C020C999DF82B2002EBC202E7
S31508003C0001EB8201C1F860020C999DF82B2002EBAA
S31508003C10C20201EB8201C1F86402FFE79DF82B009E
S31508003C2001308DF82B00BAE70C9B1868197C8DF8C3
S31508003C30141059689A68DB680493039202910299F2
S31508003C40039A049BDDF814C0EE46CEF800C007F0D0
S31508003C5069FF40B1FFE70C99022081F8950401201D
S31508003C608DF837000FE00C990020019048740C99E4
S31508003C70012081F895040C98006807F03DFF01982B
S31508003C808DF83700FFE79DF837000EB080BD0000BD
S31508003C9080B58AB009900020089007900690059094
S31508003CA0049009980068B0F1A04F47D1FFE7FFE7F5
S31508003CB00020039043F63000C4F20200016841F088
S31508003CC001010160006800F0010003900398FFE716
S31508003CD04FF4C0500490022005900020069003205F
S31508003CE007900A2008900020C4F2020004A9FEF7F3
S31508003CF0AFFAFFE743F63401C4F20201086840F060
S31508003D0080000860FFE70020029043F64400C4F2F2
S31508003D100200016841F480410160006800F48040B7
S31508003D2002900298FFE7FFE7432001900022114620
S31508003D30FEF748FF0198FEF73BFFFFE70AB080BD94
S31508003D4080B582B0019001208DF803000198C079F2
S31508003D5020B9FFE700208DF803000CE00198C07930
S31508003D60022804D1FFE701208DF8030002E0FCF7E2
S31508003D705DFFFFE7FFE70198D0F8E0049DF8031020
S31508003D8006F070FF0198D0F8E00406F0EBFE02B0EA
S31508003D9080BD000080B582B001900198D0F8E0049B
S31508003DA006F02EFF02B080BD80B582B00190019862
S31508003DB0D0F8E00406F036FF02B080BD80B584B0C6
S31508003DC002908DF80710FFE7029890F894040128EE
S31508003DD004D1FFE702208DF80F0019E002990120AF
S31508003DE081F89404FFE7FFE79DF8070002994874F5
S31508003DF0029800689DF8071008F05EFDFFE7029933
S31508003E00002081F89404FFE700208DF80F00FFE7F3
S31508003E109DF80F0004B080BD80B582B0019001996D
S31508003E20D1F8E00401F29C4106F046FF02B080BDDD
S31508003E3080B584B00290029800680190FFE7029866
S31508003E4090F89404012804D1FFE702208DF80F00AA
S31508003E5028E00299012081F89404FFE7FFE701981A
S31508003E60C068400600280BD5FFE70298407B01286A
S31508003E7006D1FFE70199886B40F480308863FFE735
S31508003E800298006808F024FB0298006807F01EFEF6
S31508003E90FFE70299002081F89404FFE700208DF8D7
S31508003EA00F00FFE79DF80F0004B080BD80B582B013
S31508003EB001900198D0F8E00406F080FF01980168A7
S31508003EC0D1F8000E40F00100C1F8000E0198C07A42
S31508003ED048B1FFE74EF61051CEF20001086840F0EF
S31508003EE006000860FFE702B080BD000080B584B018
S31508003EF002900191029820B9FFE701208DF80F0082
S31508003F0021E1019843F60041C4F20201096801F073
S31508003F100701884212D9FFE7019943F60040C4F227
S31508003F2002000170006800F007000199884204D079
S31508003F30FFE701208DF80F0005E1FFE702980078FA
S31508003F40800700282AD5FFE702980078400700284E
S31508003F5009D5FFE743F60801C4F20201086840F4F0
S31508003F60E0500860FFE7029800780007002809D5A6
S31508003F70FFE743F60801C4F20201086840F460400E
S31508003F800860FFE743F60801C4F20201086820F05A
S31508003F90F000029A926810430860FFE702980078DA
S31508003FA0C00700286ED0FFE702984068012811D1A3
S31508003FB0FFE743F60000C4F20200006800F400318F
S31508003FC00020B0EB514F04D1FFE701208DF80F0018
S31508003FD0B9E02CE002984068022805D0FFE702986D
S31508003FE04068032811D1FFE743F60000C4F2020037
S31508003FF0006800F000710020B0EB516F04D1FFE7B4
S3150800400001208DF80F009EE010E043F60000C4F290
S315080040100200006800F002010020B0EB510F04D145
S31508004020FFE701208DF80F008DE0FFE7FFE743F675
S315080040300801C4F20201086820F00300029A5268D7
S3150800404010430860FEF70CFB0090FFE743F60800F4
S31508004050C4F20200006800F00C0002994968B0EB4F
S31508004060810F0ED0FFE7FEF7FBFA0099401A41F2DE
S315080040708931884204D3FFE703208DF80F0062E0F8
S31508004080E4E7FFE7019843F60041C4F20201096834
S3150800409001F00701884212D2FFE7019943F6004072
S315080040A0C4F202000170006800F007000199884216
S315080040B004D0FFE701208DF80F0044E0FFE70298DF
S315080040C00078400700280CD5FFE743F60801C4F23C
S315080040D00201086820F4E050029AD268104308608A
S315080040E0FFE702980078000700280DD5FFE743F69A
S315080040F00801C4F20201086820F46040029A1269B5
S3150800410040EAC2000860FFE700F04CF843F60801F1
S31508004110C4F202010968C9B20A0949F64421C0F67F
S315080041200101895CC84040F2C001C2F20001086082
S3150800413040F2CC10C2F200000068FEF7DBFC00205B
S315080041408DF80F00FFE79DF80F0004B080BD000052
S3150800415040F2C000C2F200000068704780B5FFF761
S31508004160F7FF43F60801C4F202010968C1F3822287
S3150800417049F65421C0F60101895CC84080BD00009B
S3150800418080B5FFF7E5FF43F60801C4F202010968A6
S3150800419089B24A0B49F65421C0F60101895CC84028
S315080041A080BD000080B586B000200590049003907D
S315080041B0029043F60800C4F20200006800F00C0002
S315080041C00146019140B1FFE7019804280AD0FFE7AC
S315080041D0019808280CD04FE042F20040C0F2F400E3
S315080041E002904FE041F60030C0F2B700029049E075
S315080041F043F60400C4F20200016801F03F0105918C
S3150800420000684002002813D5FFE743F60400C4F20D
S3150800421002000068C0F3881041F60031C0F2B70109
S31508004220A0FB0101059A0023FCF789F8049012E027
S3150800423043F60400C4F202000068C0F3881042F294
S315080042400041C0F2F401A0FB0101059A0023FCF726
S3150800425076F80490FFE743F60400C4F2020000680B
S3150800426000F44031022000EBD13003900498039902
S31508004270B0FBF1F0029005E042F20040C0F2F40013
S315080042800290FFE7029806B080BD000080B586B0B0
S315080042900490049820B9FFE701208DF8170050E331
S315080042A004980078C007002800F0A580FFE743F6C9
S315080042B00800C4F20200006800F00C00042813D0BD
S315080042C0FFE743F60800C4F20200006800F00C009D
S315080042D008281ED1FFE743F60400C4F2020000686E
S315080042E04002002815D5FFE743F60000C4F2020095
S315080042F0006800F400310020B0EB514F08D0FFE70A
S315080043000498406820B9FFE701208DF8170018E3E4
S3150800431070E0FFE704984068B0F5803F09D1FFE7F1
S3150800432043F60001C4F20201086840F480300860D0
S3150800433020E004984068B0F5A02F0DD1FFE743F6BA
S315080043400001C4F20201086840F480200860086889
S3150800435040F4803008600CE043F60001C4F2020124
S31508004360086820F480300860086820F48020086017
S31508004370FFE7FFE7FFE704984068E8B1FFE7FEF7C5
S315080043806FF90390FFE743F60000C4F202000068E5
S3150800439000F400310020B0EB514F0CD1FFE7FEF7D7
S315080043A05FF90399401A652804D3FFE703208DF8BF
S315080043B01700C6E2E7E71CE0FEF752F90390FFE7AD
S315080043C043F60000C4F20200006800F40031002041
S315080043D0B0EB514F0CD0FFE7FEF742F90399401AAC
S315080043E0652804D3FFE703208DF81700A9E2E7E75D
S315080043F0FFE7FFE7FFE7049800788007002840F109
S315080044009680FFE743F60800C4F20200006810F041
S315080044100C0F13D0FFE743F60800C4F20200006849
S3150800442000F00C0008282CD1FFE743F60400C4F27C
S31508004430020000684002002823D4FFE743F6000084
S31508004440C4F20200006800F002010020B0EB510F30
S3150800445009D0FFE70498C068012804D0FFE70120C7
S315080044608DF817006DE243F60001C4F202010868F0
S3150800447020F0F800049A126940EAC2000860FFE7D3
S3150800448054E00498C06870B3FFE70021C4F24721DE
S3150800449001200860FEF7E4F80390FFE743F6000002
S315080044A0C4F20200006800F002010020B0EB510FD0
S315080044B00CD1FFE7FEF7D4F80399401A032804D372
S315080044C0FFE703208DF817003BE2E7E743F6000114
S315080044D0C4F20201086820F0F800049A126940EA5A
S315080044E0C200086021E00021C4F2472100200860CC
S315080044F0FEF7B6F80390FFE743F60000C4F20200A1
S31508004500006800F002010020B0EB510F0CD0FFE765
S31508004510FEF7A6F80399401A032804D3FFE70320F9
S315080045208DF817000DE2E7E7FFE7FFE7FFE70498D6
S315080045300078000700284BD5FFE70498406918B3B0
S31508004540FFE740F68061C4F2472101200860FEF7C4
S3150800455087F80390FFE743F67400C4F20200006888
S3150800456000F002010020B0EB510F0CD1FFE7FEF777
S3150800457077F80399401A032804D3FFE703208DF838
S315080045801700DEE1E7E722E040F68061C4F2472142
S3150800459000200860FEF764F80390FFE743F674000E
S315080045A0C4F20200006800F002010020B0EB510FCF
S315080045B00CD0FFE7FEF754F80399401A032804D3F2
S315080045C0FFE703208DF81700BBE1E7E7FFE7FFE702
S315080045D0049800784007002840F1CE80FFE70020C5
S315080045E08DF8070043F64000C4F202000068C000D8
S315080045F0002815D4FFE7FFE70020009043F64000A7
S31508004600C4F20200016841F080510160006800F0C0
S31508004610805000900098FFE701208DF80700FFE71B
S3150800462047F20000C4F200000068C005002822D442
S31508004630FFE747F20001C4F20001086840F4807001
S315080046400860FEF70DF80390FFE747F20000C4F292
S3150800465000000068C00500280CD4FFE7FEF700F844
S315080046600399401A032804D3FFE703208DF817009F
S3150800467067E1EAE7FFE7FFE704988068012809D1C0
S31508004680FFE743F67001C4F20201086840F0010032
S3150800469008601FE00498806805280DD1FFE743F6F7
S315080046A07001C4F20201086840F004000860086856
S315080046B040F0010008600CE043F67001C4F2020104
S315080046C0086820F001000860086820F00400086007
S315080046D0FFE7FFE7FFE704988068F8B1FFE7FDF713
S315080046E0BFFF0390FFE743F67000C4F202000068BC
S315080046F000F002010020B0EB510F0ED1FFE7FDF7E5
S31508004700AFFF0399401A41F28931884204D3FFE783
S3150800471003208DF8170014E1E5E71EE0FDF7A0FF7A
S315080047200390FFE743F67000C4F20200006800F049
S3150800473002010020B0EB510F0ED0FFE7FDF790FF06
S315080047400399401A41F28931884204D3FFE70320CE
S315080047508DF81700F5E0E5E7FFE79DF80700012863
S3150800476009D1FFE743F64001C4F20201086820F0C8
S3150800477080500860FFE7FFE704988069002800F08A
S31508004780DC80FFE743F60800C4F20200006800F088
S315080047900C00082800F08580FFE704988069022845
S315080047A05CD1FFE76021C4F2472100200860FDF7CD
S315080047B057FF0390FFE743F60000C4F202000068C3
S315080047C000F000710020B0EB516F0CD0FFE7FDF749
S315080047D047FF0399401A032804D3FFE703208DF8FF
S315080047E01700AEE0E7E70499C869D1F820C04B6A1C
S315080047F08A6A40EA0C0040EA8310D2034FF6FF7338
S315080048009A43A2F580321043C96A40EA016043F62A
S315080048100401C4F2020108606021C4F247210120A4
S315080048200860FDF71DFF0390FFE743F60000C4F29A
S315080048300200006800F000710020B0EB516F0CD147
S31508004840FFE7FDF70DFF0399401A032804D3FFE796
S3150800485003208DF8170074E0E7E721E06021C4F231
S31508004860472100200860FDF7FBFE0390FFE743F6AB
S315080048700000C4F20200006800F000710020B0EBEE
S31508004880516F0CD0FFE7FDF7EBFE0399401A03289A
S3150800489004D3FFE703208DF8170052E0E7E7FFE7A8
S315080048A04AE004988069012804D1FFE701208DF8C1
S315080048B0170046E043F60400C4F2020000680290BE
S315080048C004988069012831D0FFE7029800F4800037
S315080048D00499C969884229D1FFE7029800F03F0088
S315080048E00499096A884221D1FFE7029847F6C07100
S315080048F008400499496AB0EB811F17D1FFE702986F
S3150800490000F440300499896AC9034FF6FF7291434F
S31508004910A1F58031884209D1FFE7029800F070605E
S315080049200499C96AB0EB016F04D0FFE701208DF83E
S31508004930170006E0FFE7FFE7FFE700208DF81700FE
S31508004940FFE79DF8170006B080BD000081B0009013
S3150800495001B0704780B584B00290029820B9FFE78D
S3150800496001208DF80F0071E00298406A60B9FFE7F0
S3150800497002984068B0F5827F01D1FFE703E002990B
S315080049800020C861FFE705E0029900200861029946
S315080049904861FFE7029900208862029890F8510062
S315080049A040B9FFE70299002081F85000029800F00C
S315080049B051F8FFE70299022081F851000298016830
S315080049C0086820F040000860029A01921168506851
S315080049D0D2F808C0D36800F482700CF4044C604422
S315080049E003F400631844136903F002031844536977
S315080049F003F001031844936903F400731844D36958
S31508004A0003F038031844136A03F080031843926AC4
S31508004A1002F4005210430860029A508B00F004001A
S31508004A201168526A02F01002104448600298016840
S31508004A30C86920F40060C861029900204865029A96
S31508004A40012182F851108DF80F00FFE79DF80F003D
S31508004A5004B080BD80B590B00F9000200E900D90E8
S31508004A600C900B900A900F98006843F20001C4F26C
S31508004A700101884240F0C080FFE7FFE70020099067
S31508004A8043F64400C4F20200016841F48051016013
S31508004A90006800F4805009900998FFE7FFE70020B6
S31508004AA0089043F63000C4F20200016841F00201A2
S31508004AB00160006800F0020008900898FFE7FFE729
S31508004AC00020079043F63000C4F20200016841F066
S31508004AD001010160006800F0010007900798FFE7F0
S31508004AE018200A90022001900B90012002900C9049
S31508004AF0032005900D90052003900E9040F200408B
S31508004B00C4F202000AA90491FDF7A2FBDDF804C06D
S31508004B10029B03980499059A4FF0800ECDF828E079
S31508004B20CDF82CC00C930D920E900020C4F2020012
S31508004B30FDF78EFB059A45F6E010C2F200000690D6
S31508004B4046F24041C4F2020101604FF0C061416083
S31508004B5000218160C1604FF4806303614161816116
S31508004B60C1614FF440330362042343628262C16227
S31508004B700163FDF70FFA18B1FFE7FCF757F8FFE7EF
S31508004B80FFE70F9845F6E011C2F20001C1640F98DD
S31508004B908863FFE745F64020C2F20000009046F21F
S31508004BA05841C4F2020101604FF0C06141604021E2
S31508004BB081600021C1604FF48062026141618161B8
S31508004BC0C1614FF400320262042242620322826209
S31508004BD0C1620163FDF7DEF918B1FFE7FCF726F8B5
S31508004BE0FFE7FFE70F9845F64021C2F2000181640E
S31508004BF00F988863FFE7FFE710B080BD81B000908B
S31508004C0001B0704781B0009001B0704780B58CB094
S31508004C10DDF838C00A9009910892ADF81E300120D7
S31508004C200390FDF71DFD04900A9890F851008DF841
S31508004C3017000A9840680690BDF81E00ADF81C00DB
S31508004C409DF81700012812D0FFE70698B0F5827F75
S31508004C5009D1FFE70A98806828B9FFE79DF8170089
S31508004C60042804D0FFE702208DF82F009BE109985D
S31508004C7038B1FFE7089820B1FFE7BDF81E0020B954
S31508004C80FFE701208DF82F008DE1FFE70A9890F8DD
S31508004C905000012804D1FFE702208DF82F0082E199
S31508004CA00A99012081F85000FFE7FFE70A9890F873
S31508004CB05100042805D0FFE70A99052081F851001C
S31508004CC0FFE70A990020486508990A9A9163BDF892
S31508004CD01E100A9AD187BDF81E100A9A918709995B
S31508004CE00A9A1163BDF81E100A9AD186BDF81E10DD
S31508004CF00A9A91860A9908640A9948640A98006883
S31508004D00006800F04000402807D0FFE70A980168CD
S31508004D10086840F040000860FFE70A98C068B0F5E8
S31508004D20006F40F08180FFE70A98406828B1FFE7E6
S31508004D30BDF81C0001280ED1FFE70A980168006B30
S31508004D400088C8600A99086B023008630A99C88EF9
S31508004D500138C886FFE7FFE70A98C18E012001904F
S31508004D6039B9FFE70A98C08F002818BF01200190BB
S31508004D70FFE70198C007002855D0FFE70A980068A2
S31508004D8080688007002818D5FFE70A98C08EA0B16A
S31508004D90FFE70398012810D1FFE70A980168006B1E
S31508004DA00088C8600A99086B023008630A99C88E99
S31508004DB00138C88600200390FFE70A9800688068D3
S31508004DC0C007A8B1FFE70A98C08F88B1FFE70A981D
S31508004DD00068C0680A99896B08800A99886B02304E
S31508004DE088630A99C88F0138C88701200390FFE7AE
S31508004DF0FDF736FC0499401A0E99884212D3FFE74C
S31508004E000E98013070B1FFE70A99012081F8510028
S31508004E10FFE70A99002081F85000FFE703208DF884
S31508004E202F00C0E098E782E00A98406828B1FFE7BB
S31508004E30BDF81C0001280ED1FFE70A980168006B2F
S31508004E40007808730A99086B013008630A99C88EB6
S31508004E500138C886FFE7FFE70A98C18E012000904F
S31508004E6039B9FFE70A98C08F002818BF01200090BB
S31508004E70FFE70098C007002858D0FFE70A9800689F
S31508004E8080688007002818D5FFE70A98C08EA0B169
S31508004E90FFE70398012810D1FFE70A980168006B1D
S31508004EA0007808730A99086B013008630A99C88E56
S31508004EB00138C88600200390FFE70A9800688068D2
S31508004EC0C007A8B1FFE70A98C08F88B1FFE70A981C
S31508004ED00068C0680A99896B08700A99886B01305E
S31508004EE088630A99C88F0138C88701200390FFE7AD
S31508004EF0FDF7B6FB0499401A0E99884204D3FFE7DA
S31508004F000E98013018B9FFE70E9870B9FFE70A99AD
S31508004F10012081F85100FFE70A99002081F8500026
S31508004F20FFE703208DF82F003DE095E7FFE70A9895
S31508004F300E99049A02F0AEFF68B1FFE70A9920209D
S31508004F404865FFE70A99002081F85000FFE701202D
S31508004F508DF82F0027E00A98806870B9FFE7FFE709
S31508004F60002002900A980068C06802900A980068B3
S31508004F70806802900298FFE7FFE70A99012081F806
S31508004F805100FFE70A99002081F85000FFE70A98C8
S31508004F90406D20B1FFE701208DF82F0003E00020C7
S31508004FA08DF82F00FFE79DF82F000CB080BD00009C
S31508004FB080B588B0069005910492ADF80E30069833
S31508004FC090F851008DF807000698406802909DF801
S31508004FD00700012812D0FFE70298B0F5827F09D1B1
S31508004FE0FFE70698806828B9FFE79DF807000428B8
S31508004FF004D0FFE702208DF81F00DFE0059838B1DE
S31508005000FFE7049820B1FFE7BDF80E0020B9FFE7D7
S3150800501001208DF81F00D1E0FFE7069890F85000B0
S31508005020012804D1FFE702208DF81F00C6E0069983
S31508005030012081F85000FFE7FFE7069890F8510035
S31508005040042805D0FFE70699052081F85100FFE7F7
S315080050500699002048650599069A1163BDF80E1051
S31508005060069A9186BDF80E10069AD1860499069A74
S315080050709163BDF80E10069A9187BDF80E10069A30
S31508005080D1870699086406994864069890F85100ED
S3150800509004280FD1FFE70698C16C47F65540C0F6BD
S315080050A0000008640698C16C47F68540C0F6000003
S315080050B0C8630EE00698C16C47F66D40C0F600005E
S315080050C008640698C16C47F62950C0F60000C86304
S315080050D0FFE70698C16C47F62140C0F60000C86491
S315080050E00698C16C00200865069B19689A6BD86CEF
S315080050F00C31DB8FFDF706F878B1FFE70699486DA6
S3150800510040F010004865FFE70699002081F8500036
S31508005110FFE701208DF81F0050E0069801684868EF
S3150800512040F0010048600698816C002008640699E2
S31508005130896CC8630699896CC8640699896C086580
S31508005140069B1A68196B986C0C32DB8EFCF7DAFF33
S3150800515078B1FFE70699486D40F010004865FFE70B
S315080051600699002081F85000FFE701208DF81F00FE
S3150800517024E006980068006800F04000402807D040
S31508005180FFE706980168086840F040000860FFE7F6
S31508005190FFE70699002081F85000FFE706980168A6
S315080051A0486840F02000486006980168486840F062
S315080051B00200486000208DF81F00FFE79DF81F00D9
S315080051C008B080BD80B584B003900398006843F2A8
S315080051D00001C4F20101884213D1FFE740F22061C1
S315080051E0C2F20001029148680989FDF70DFA029991
S315080051F0D1F81031B1F80A2101F10A008A3198472D
S3150800520039E00398006843F60001C4F200018842B9
S3150800521013D1FFE740F23471C2F2000101914868E8
S315080052200989FDF7F1F90199D1F81031B1F80A2188
S3150800523001F10A008A3198471CE00398006843F692
S315080052400041C4F20001884213D1FFE740F6480145
S31508005250C2F20001009148680989FDF7D5F900995D
S31508005260D1F81031B1F80A2101F10A008A319847BC
S31508005270FFE7FFE7FFE704B080BD000081B00090BC
S3150800528001B0704780B582B00190019802F01CFF0A
S3150800529002B080BD81B0009001B0704781B0009027
S315080052A001B0704784B00290019100200090FFE79A
S315080052B0029890F83C00012804D1FFE702208DF8F7
S315080052C00F0044E00299012081F83C00FFE7FFE760
S315080052D0009820F0FF000199C968084300900098DB
S315080052E020F440700199896808430090009820F4DA
S315080052F080600199496808430090009820F400608E
S315080053000199096808430090009820F48050019993
S31508005310096908430090009820F4005001994969EA
S3150800532008430090009820F480400199C969084311
S3150800533000900098029909684864FFE702990020DE
S3150800534081F83C00FFE700208DF80F00FFE79DF885
S315080053500F0004B07047000085B003900291FFE784
S31508005360039890F83C00012804D1FFE702208DF845
S3150800537013007EE00399012081F83C00FFE7FFE770
S315080053800399022081F83D0003980068406801905F
S315080053900398006880680090019820F070000190DA
S315080053A002980168019808430190019803990968D1
S315080053B04860039800680021C4F2010188423CD085
S315080053C0FFE703980068B0F1804F36D0FFE70398EF
S315080053D0006840F20041C4F2000188422DD0FFE780
S315080053E00398006840F60001C4F20001884224D000
S315080053F0FFE70398006840F60041C4F200018842BE
S315080054001BD0FFE70398006840F20041C4F201018F
S31508005410884212D0FFE70398006844F20001C4F2FC
S315080054200101884209D0FFE70398006841F60001A8
S31508005430C4F2000188420ED1FFE7009820F08000F0
S3150800544000900298416800980843009000980399D4
S3150800545009688860FFE70399012081F83D00FFE7A6
S315080054600399002081F83C00FFE700208DF813001F
S31508005470FFE79DF8130005B07047000080B582B0BD
S315080054800090009820B9FFE701208DF807003FE05B
S31508005490009890F83D0040B9FFE70099002081F890
S315080054A03C00009800F038F8FFE70099022081F8E0
S315080054B03D00009951F8040B02F0ACFE009901205A
S315080054C081F84600FFE70099012081F83E0000991F
S315080054D081F83F00009981F84000009981F8410061
S315080054E0FFE7FFE70099012081F84200009981F85B
S315080054F04300009981F84400009981F84500FFE7C8
S315080055000099012081F83D0000208DF80700FFE78B
